{
  "_format": "hh-sol-artifact-1",
  "contractName": "BookStore",
  "sourceName": "contracts/BookStore.sol",
  "abi": [
    {
      "inputs": [
        {
          "components": [
            {
              "internalType": "string",
              "name": "title",
              "type": "string"
            },
            {
              "internalType": "uint16",
              "name": "year",
              "type": "uint16"
            }
          ],
          "internalType": "struct BookStore.Book",
          "name": "book",
          "type": "tuple"
        }
      ],
      "name": "addBook",
      "outputs": [
        {
          "components": [
            {
              "internalType": "string",
              "name": "title",
              "type": "string"
            },
            {
              "internalType": "uint16",
              "name": "year",
              "type": "uint16"
            }
          ],
          "internalType": "struct BookStore.Book",
          "name": "",
          "type": "tuple"
        }
      ],
      "stateMutability": "nonpayable",
      "type": "function"
    },
    {
      "inputs": [],
      "name": "getBooks",
      "outputs": [
        {
          "components": [
            {
              "internalType": "string",
              "name": "title",
              "type": "string"
            },
            {
              "internalType": "uint16",
              "name": "year",
              "type": "uint16"
            }
          ],
          "internalType": "struct BookStore.Book[]",
          "name": "",
          "type": "tuple[]"
        }
      ],
      "stateMutability": "view",
      "type": "function"
    },
    {
      "inputs": [],
      "name": "getBooksCountrForOwner",
      "outputs": [
        {
          "internalType": "uint256",
          "name": "",
          "type": "uint256"
        }
      ],
      "stateMutability": "view",
      "type": "function"
    }
  ],
  "bytecode": "0x608060405234801561001057600080fd5b50610976806100206000396000f3fe608060405234801561001057600080fd5b50600436106100415760003560e01c806387a621f6146100465780639f34978914610064578063b19a463514610082575b600080fd5b61004e6100b2565b60405161005b91906106b2565b60405180910390f35b61006c6100f8565b604051610079919061066e565b60405180910390f35b61009c600480360381019061009791906104d3565b610209565b6040516100a99190610690565b60405180910390f35b60008060003373ffffffffffffffffffffffffffffffffffffffff1673ffffffffffffffffffffffffffffffffffffffff16815260200190815260200160002054905090565b60606001805480602002602001604051908101604052809291908181526020016000905b82821015610200578382906000526020600020906002020160405180604001604052908160008201805461014f90610828565b80601f016020809104026020016040519081016040528092919081815260200182805461017b90610828565b80156101c85780601f1061019d576101008083540402835291602001916101c8565b820191906000526020600020905b8154815290600101906020018083116101ab57829003601f168201915b505050505081526020016001820160009054906101000a900461ffff1661ffff1661ffff16815250508152602001906001019061011c565b50505050905090565b610211610331565b6001829080600181540180825580915050600190039060005260206000209060020201600090919091909150600082015181600001908051906020019061025992919061034f565b5060208201518160010160006101000a81548161ffff021916908361ffff16021790555050506102d160016000803373ffffffffffffffffffffffffffffffffffffffff1673ffffffffffffffffffffffffffffffffffffffff1681526020019081526020016000205461031b90919063ffffffff16565b6000803373ffffffffffffffffffffffffffffffffffffffff1673ffffffffffffffffffffffffffffffffffffffff16815260200190815260200160002081905550819050919050565b600081836103299190610778565b905092915050565b604051806040016040528060608152602001600061ffff1681525090565b82805461035b90610828565b90600052602060002090601f01602090048101928261037d57600085556103c4565b82601f1061039657805160ff19168380011785556103c4565b828001600101855582156103c4579182015b828111156103c35782518255916020019190600101906103a8565b5b5090506103d191906103d5565b5090565b5b808211156103ee5760008160009055506001016103d6565b5090565b6000610405610400846106f2565b6106cd565b90508281526020810184848401111561041d57600080fd5b6104288482856107e6565b509392505050565b600082601f83011261044157600080fd5b81356104518482602086016103f2565b91505092915050565b60006040828403121561046c57600080fd5b61047660406106cd565b9050600082013567ffffffffffffffff81111561049257600080fd5b61049e84828501610430565b60008301525060206104b2848285016104be565b60208301525092915050565b6000813590506104cd81610929565b92915050565b6000602082840312156104e557600080fd5b600082013567ffffffffffffffff8111156104ff57600080fd5b61050b8482850161045a565b91505092915050565b600061052083836105d6565b905092915050565b600061053382610733565b61053d8185610756565b93508360208202850161054f85610723565b8060005b8581101561058b578484038952815161056c8582610514565b945061057783610749565b925060208a01995050600181019050610553565b50829750879550505050505092915050565b60006105a88261073e565b6105b28185610767565b93506105c28185602086016107f5565b6105cb81610918565b840191505092915050565b600060408301600083015184820360008601526105f3828261059d565b91505060208301516106086020860182610650565b508091505092915050565b60006040830160008301518482036000860152610630828261059d565b91505060208301516106456020860182610650565b508091505092915050565b610659816107ce565b82525050565b610668816107dc565b82525050565b600060208201905081810360008301526106888184610528565b905092915050565b600060208201905081810360008301526106aa8184610613565b905092915050565b60006020820190506106c7600083018461065f565b92915050565b60006106d76106e8565b90506106e3828261085a565b919050565b6000604051905090565b600067ffffffffffffffff82111561070d5761070c6108e9565b5b61071682610918565b9050602081019050919050565b6000819050602082019050919050565b600081519050919050565b600081519050919050565b6000602082019050919050565b600082825260208201905092915050565b600082825260208201905092915050565b6000610783826107dc565b915061078e836107dc565b9250827fffffffffffffffffffffffffffffffffffffffffffffffffffffffffffffffff038211156107c3576107c261088b565b5b828201905092915050565b600061ffff82169050919050565b6000819050919050565b82818337600083830152505050565b60005b838110156108135780820151818401526020810190506107f8565b83811115610822576000848401525b50505050565b6000600282049050600182168061084057607f821691505b60208210811415610854576108536108ba565b5b50919050565b61086382610918565b810181811067ffffffffffffffff82111715610882576108816108e9565b5b80604052505050565b7f4e487b7100000000000000000000000000000000000000000000000000000000600052601160045260246000fd5b7f4e487b7100000000000000000000000000000000000000000000000000000000600052602260045260246000fd5b7f4e487b7100000000000000000000000000000000000000000000000000000000600052604160045260246000fd5b6000601f19601f8301169050919050565b610932816107ce565b811461093d57600080fd5b5056fea264697066735822122082eb8d487cf1d9a65d0ce2477503cf9bd42ab07cb1dd8089379005b6279c4bb464736f6c63430008030033",
  "linkReferences": {},
  "deployedLinkReferences": {}
}